:0E0000000EC046C0FDCF77C0FBCFFACFF9CFC0
:10000E00F8CFF7CFF6CF010001007000140000000A
:10001E00F894EE27ECBBE5BFF8E1A4B7A77FA4BF29
:10002E00F1BDE1BD8DE0A2E0ED938A95E9F780E4A4
:10003E00A0E6ED938A95E9F7E6E1F0E0C8953196F2
:10004E00802DC8953196902D0097B9F0C8953196B0
:10005E00A02DC8953196B02DC8953196102CC89507
:10006E0031966E2F7F2FF02DE12DC89531960D9282
:10007E000197D9F7E62FF72FE1CFEFE9EDBFC0E7F4
:10008E003DC0AA93EA93EFB7EA93E0E4EBBFE0E05A
:10009E009CD029F4E0917100EF5FE0937100A09184
:1000AE007200A83290F4A0917000A13031F4C09A81
:1000BE00C29AE2E0E5BFE0E005C0C098C298E3E076
:1000CE00E5BFE1E0E093700007C0E3E0E5BFE1E0EB
:1000DE00E09370007FD083D0E0E4EABFEBBFE991FC
:1000EE00EFBFE991A9911895EA93E0917100E09321
:1000FE007200E0E0E0937100E99118952297E0E03C
:10010E00E883E98300E010E0E0E8E6BDE0E0E6BD6C
:10011E00E8E3E8BBE5E0E7BBC298C09800E010E07A
:10012E000A30E0E01E07A8F45AD054D0E2E3F0E023
:10013E00FA93EA9359D0E6B3E095E27021F0E881A4
:10014E00EF5FE88303C0E981EF5FE9830F5F1F4F25
:10015E00E7CFC29AE9E3E1BDE9E2E1BDA881A530AE
:10016E0019F4A981A53009F009C07894A89532D068
:10017E0036D080EB94E00197F1F7F8CFE6B3E09537
:10018E00E27021F0C098C298E1E003C0C09AC29A12
:10019E00E0E0E0937000E0E0E3BFEAEEE6BFE9BD29
:1001AE00E6E1E2BFE0E0EFBDE5E0E3BFE0E40DD065
:1001BE0011F4E3E001C0E2E0E5BFE0E4EBBFE2E012
:1001CE00E9BF7894A895FECFFFCFEABFA09170004B
:1001DE00A1300895E8B3A1E0EA27E8BB0895E8B39B
:1001EE00A4E0EA27E8BB0895E991F991309639F039
:1001FE0080E699E00197F1F7A8953197C9F7089530
:00000001FF
